:020000040800F2
:1000000000500020D5070008250800082508000832
:100010002508000825080008250800080000000041
:10002000000000000000000000000000250800089B
:100030002508000800000000250800082508000821
:1000400025080008250800082508000825080008DC
:1000500025080008250800082508000825080008CC
:1000600025080008250800082508000825080008BC
:1000700025080008250800082508000825080008AC
:10008000250800082508000825080008250800089C
:10009000250800082508000825080008250800088C
:1000A000250800082508000825080008250800087C
:1000B000250800082508000825080008250800086C
:1000C000250800082508000825080008250800085C
:1000D000250800082508000825080008250800084C
:1000E0002508000825080008000000002508000871
:1000F000250800082508000825080008250800082C
:10010000250800082508000825080008250800081B
:10011000250800082508000825080008250800080B
:1001200025080008250800082508000825080008FB
:1001300010B5054C237833B9044B13B10448AFF321
:1001400000800123237010BD00000020000000008B
:100150007008000808B5034B1BB103490348AFF30F
:10016000008008BD000000000400002070080008A6
:1001700080B485B000AF78607B681B78012B06D017
:10018000022B07D0002B08D1964BFB6005E0964B65
:10019000FB6002E0954BFB6000BF7B685B78072B40
:1001A00000F226817B689B78002B17D1FB681B68C7
:1001B0007A6852789200032101FA02F2D2431A407F
:1001C000FB681A60FB681B687A685278920001210C
:1001D00001FA02F21A43FB681A6038E27B689B78E6
:1001E000012B21D1FB681B687A68527892000321A9
:1001F00001FA02F2D2431A40FB681A60FB681B68DE
:100200007A6852789200022101FA02F21A43FB68DE
:100210001A60FB68DB687A685278114601228A40CE
:100220001A43FB68DA6012E27B689B78022B22D1CA
:10023000FB681B687A6852789200032101FA02F287
:10024000D2431A40FB681A60FB681B687A685278D0
:100250009200022101FA02F21A43FB681A60FB685D
:10026000DB687A685278114601228A40D2431A40EC
:10027000FB68DA60EBE17B689B78032B10D1FB68AD
:100280001B687A6852789200032101FA02F2D24385
:100290001A40FB681A60FB681A68FB681A60D6E1AE
:1002A0007B689B78042B1DD1FB681B687A685278A9
:1002B00092000F2101FA02F2D2431A40FB681A6041
:1002C000FB681B687A68D27811467A685278920087
:1002D00001FA02F21A43FB681A60FB681A68FB68AD
:1002E0001A60B4E17B689B78052B25D1FB681B68FD
:1002F0007A68527892000F2101FA02F2D2431A4032
:10030000FB681A60FB681B687A68D27811467A68C5
:100310005278920001FA02F21A43FB681A60FB68F5
:100320001B687A68527892000232012101FA02F2C7
:100330001A43FB681A608AE17B689B78062B25D1FB
:10034000FB681B687A68527892000F2101FA02F26A
:10035000D2431A40FB681A60FB681B687A68D2783F
:1003600011467A685278920001FA02F21A43FB6849
:100370001A60FB681B687A68527892000232022188
:1003800001FA02F21A43FB681A6060E17B689B780D
:10039000072B40F05C81FB681B687A6852789200FA
:1003A0000F2101FA02F2D2431A40FB681A60FB687F
:1003B0001B687A68D27811467A685278920001FAFE
:1003C00002F21A43FB681A60FB681B687A6852786D
:1003D00092000232032101FA02F21A43FB681A600A
:1003E00035E100BF00080140000C01400010014051
:1003F0007B689B78002B19D1FB685B687A68527820
:10040000083A9200032101FA02F2D2431A40FB6833
:100410005A60FB685B687A685278083A920001215A
:1004200001FA02F21A43FB685A6010E17B689B787C
:10043000012B23D1FB685B687A685278083A9200F6
:10044000032101FA02F2D2431A40FB685A60FB68AA
:100450005B687A685278083A9200022101FA02F247
:100460001A43FB685A60FB68DB687A685278114669
:1004700001228A401A43FB68DA60E8E07B689B78D7
:10048000022B24D1FB685B687A685278083A9200A4
:10049000032101FA02F2D2431A40FB685A60FB685A
:1004A0005B687A685278083A9200022101FA02F2F7
:1004B0001A43FB685A60FB68DB687A685278114619
:1004C00001228A40D2431A40FB68DA60BFE07B68B1
:1004D0009B78032B11D1FB685B687A685278083AE5
:1004E0009200032101FA02F2D2431A40FB685A60DB
:1004F000FB685A68FB685A60A9E07B689B78042B0C
:100500001FD1FB685B687A685278083A92000F2125
:1005100001FA02F2D2431A40FB685A60FB685B683A
:100520007A68D27811467A685278083A920001FACD
:1005300002F21A43FB685A60FB685A68FB685A600B
:1005400085E07B689B78052B28D1FB685B687A681F
:100550005278083A92000F2101FA02F2D2431A406F
:10056000FB685A60FB685B687A68D27811467A68E3
:100570005278083A920001FA02F21A43FB685A6074
:10058000FB685B687A685278083A9200023201216F
:1005900001FA02F21A43FB685A6058E07B689B78C4
:1005A000062B28D1FB685B687A685278083A92007B
:1005B0000F2101FA02F2D2431A40FB685A60FB682D
:1005C0005B687A68D27811467A685278083A920065
:1005D00001FA02F21A43FB685A60FB685B687A68AA
:1005E0005278083A92000232022101FA02F21A43CA
:1005F000FB685A602BE07B689B78072B27D1FB6850
:100600005B687A685278083A92000F2101FA02F288
:10061000D2431A40FB685A60FB685B687A68D278FC
:1006200011467A685278083A920001FA02F21A43A7
:10063000FB685A60FB685B687A685278083A9200F7
:100640000232032101FA02F21A43FB685A6000BF2A
:100650001437BD4680BC704780B483B000AF78606B
:100660000B46FB701346BB70BB78012B09D17B682E
:100670001B69FA78012101FA02F21A437B681A61B8
:1006800008E07B685B69FA78012101FA02F21A43FB
:100690007B685A6100BF0C37BD4680BC70470000C4
:1006A00080B400AF164B1B68154A43F0010313607A
:1006B00000BF134B1B685B0803F00103002BF8D04D
:1006C0000F4B5B680E4A23F0020353600C4B5B68D0
:1006D0000B4A23F00103536000BF094B5B68084AD3
:1006E00043F0A0035360064B054A5B685360044B1C
:1006F000034A5B68536000BFBD4680BC704700BFC3
:100700000010024080B485B000AF78607B681B0C9D
:10071000FB73FB7B022B0FD0032B18D0012B00D0D7
:1007200020E0134B5A6901217B6801FA03F39BB265
:100730000F4913434B6115E00D4BDA6901217B68CA
:1007400001FA03F39BB20A491343CB610AE0084B59
:100750009A6901217B6801FA03F39BB204491343B0
:100760008B6100BF00BF1437BD4680BC704700BF1F
:100770000010024080B582B000AFFFF791FF124831
:10078000FFF7C0FF1148FFF7BDFF02233B710F23A6
:100790007B710423BB710223FB7100233B70072391
:1007A0007B700123BB700223FB703B1D1846FFF7D3
:1007B000DFFC3B461846FFF7DBFC01220F21044813
:1007C000FFF74AFFFEE700BF04000300020003003A
:1007D000001001400D4885460D480E490E4A002381
:1007E00002E0D458C4500433C4188C42F9D30B4AE5
:1007F0000B4C002301E013600432A242FBD3AFF3A1
:10080000008000F011F8FFF7B5FFFEE70050002070
:1008100000000020000000209008000800000020D8
:100820001C000020FEE7000070B500250C4E0D4CAA
:10083000A41BA410A54209D100F01AF800250A4E05
:100840000A4CA41BA410A54205D170BD56F8253052
:1008500098470135EEE756F8253098470135F2E71D
:100860008808000888080008880800088C08000824
:10087000F8B500BFF8BC08BC9E467047F8B500BF8D
:08088000F8BC08BC9E4670475D
:04088800550100080E
:04088C00310100082E
:04000005080007D513
:00000001FF
