:020000040800F2
:1000000000500020A5040008F5040008F5040008CD
:10001000F5040008F5040008F504000800000000DD
:10002000000000000000000000000000F5040008CF
:10003000F504000800000000F5040008F5040008BD
:10004000F5040008F5040008F5040008F5040008AC
:10005000F5040008F5040008F5040008F50400089C
:10006000F5040008F5040008F5040008F50400088C
:10007000F5040008F5040008F5040008F50400087C
:10008000F5040008F5040008F5040008F50400086C
:10009000F5040008F5040008F5040008F50400085C
:1000A000F5040008F5040008F5040008F50400084C
:1000B000F5040008F5040008F5040008F50400083C
:1000C000F5040008F5040008F5040008F50400082C
:1000D000F5040008F5040008F5040008F50400081C
:1000E000F5040008F504000800000000F50400080D
:1000F000F5040008F5040008F5040008F5040008FC
:10010000F5040008F5040008F5040008F5040008EB
:10011000F5040008F5040008F5040008F5040008DB
:10012000F5040008F5040008F5040008F5040008CB
:1001300010B5054C237833B9044B13B10448AFF321
:1001400000800123237010BD00000020000000008B
:100150004005000808B5034B1BB103490348AFF342
:10016000008008BD000000000400002040050008D9
:1001700080B485B000AF78607B681B78012B06D017
:10018000022B07D0002B08D17C4BFB6005E07C4B99
:10019000FB6002E07A4BFB6000BF7B685B78072B5B
:1001A00071D87B689B78012B0BD07B689B78022BE6
:1001B00007D07B689B78022B03D07B689B78002B51
:1001C0002AD1FB681B687A6852789200032101FAF1
:1001D00002F2D2431A40FB681A607B689B78022BBC
:1001E0000BD1FB68DB687A685278114601228A409D
:1001F000D2431A40FB68DA6028E07B689B78022BC8
:1002000024D1FB68DB687A685278114601228A4063
:100210001A43FB68DA6019E0FB681B687A68527859
:100220009200032101FA02F2D2431A40FB681A60DD
:10023000FB681B687A68D27811467A685278920017
:1002400001FA02F21A43FB681A6000E000BFFB6883
:100250001B687A68527892000232032101FA02F296
:10026000D2431A40FB681A60FB681B687A68927870
:1002700011467A6852789200023201FA02F21A4369
:10028000FB681A6074E07B689B78012B0BD07B685D
:100290009B78022B07D07B689B78022B03D07B686E
:1002A0009B78002B2AD1FB685B687A6852789200B1
:1002B000032101FA02F2D2431A40FB685A607B68BC
:1002C0009B78022B0BD1FB68DB687A685278114669
:1002D00001228A40D2431A40FB68DA602AE07B6838
:1002E0009B78022B26D1FB68DB687A68527811462E
:1002F00001228A401A43FB68DA601BE0FB685B68F6
:100300007A685278083A9200032101FA02F2D24345
:100310001A40FB685A60FB685B687A68D2781146BD
:100320007A685278083A920001FA02F21A43FB689E
:100330005A6000E000BFFB685B687A685278083A50
:1003400092000232032101FA02F2D2431A40FB6802
:100350005A60FB685B687A68927811467A685278CE
:10036000083A9200023201FA02F21A43FB685A601C
:1003700000BF1437BD4680BC704700BF0008014075
:10038000000C014080B483B000AF78600B46FB7076
:100390001346BB70BB78012B09D17B681B69FA78C7
:1003A000012101FA02F21A437B681A6108E07B68B6
:1003B0005B69FA78012101FA02F21A437B685A61FB
:1003C00000BF0C37BD4680BC7047000080B485B0CC
:1003D00000AF78607B681B0CFB73FB7B022B0FD09C
:1003E000032B18D0012B00D020E0134B5A690121B8
:1003F0007B6801FA03F39BB20F4913434B6115E08D
:100400000D4BDA6901217B6801FA03F39BB20A49BB
:100410001343CB610AE0084B9A6901217B6801FA1A
:1004200003F39BB2044913438B6100BF00BF143731
:10043000BD4680BC704700BF0010024080B582B04E
:1004400000AF1448FFF7C2FF1348FFF7BFFF0023B8
:100450003B7105237B710023BB710223FB713B1DA4
:100460001846FFF785FE012205210C48FFF78AFF99
:1004700002233B700D237B700023BB700223FB70B3
:100480003B461846FFF774FE01220D210448FFF792
:1004900079FFFEE7020003000400030000080140AA
:1004A000000C01400D4885460D480E490E4A0023B8
:1004B00002E0D458C4500433C4188C42F9D30B4A18
:1004C0000B4C002301E013600432A242FBD3AFF3D4
:1004D000008000F011F8FFF7B1FFFEE700500020A8
:1004E000000000200000002060050008000000203F
:1004F0001C000020FEE7000070B500250C4E0D4CDE
:10050000A41BA410A54209D100F01AF800250A4E38
:100510000A4CA41BA410A54205D170BD56F8253085
:1005200098470135EEE756F8253098470135F2E750
:100530005805000858050008580500085C05000823
:10054000F8B500BFF8BC08BC9E467047F8B500BFC0
:08055000F8BC08BC9E46704790
:040558005501000841
:04055C003101000861
:04000005080004A546
:00000001FF
