:020000040800F2
:1000000000500020050C0008550C0008550C000895
:10001000550C0008550C0008550C000800000000A5
:10002000000000000000000000000000550C000867
:10003000550C000800000000550C0008090B0008D2
:10004000550C0008550C0008550C0008550C00080C
:10005000550C0008550C0008550C0008550C0008FC
:10006000550C0008550C0008550C0008550C0008EC
:10007000550C0008550C0008550C0008550C0008DC
:10008000550C0008550C0008550C0008550C0008CC
:10009000550C0008550C0008550C0008550C0008BC
:1000A000550C0008550C0008550C0008550C0008AC
:1000B000550C0008550C0008550C0008550C00089C
:1000C000550C0008550C0008550C0008550C00088C
:1000D000550C0008550C0008550C0008550C00087C
:1000E000550C0008550C000800000000550C0008D5
:1000F000550C0008550C0008550C0008550C00085C
:10010000550C0008550C0008550C0008550C00084B
:10011000550C0008550C0008550C0008550C00083B
:10012000550C0008550C0008550C0008550C00082B
:1001300010B5054C237833B9044B13B10448AFF321
:1001400000800123237010BD00000020000000008B
:10015000A00C000808B5034B1BB103490348AFF3DB
:10016000008008BD0000000004000020A00C000872
:1001700080B584B000AF78607B681B783B727B6889
:100180005B787B720423BB720223FB7207F10803C6
:10019000184600F0EBF87B689B783B727B68DB7855
:1001A0007B7207F10803184600F0E0F87B685B7B80
:1001B000002B01D1082300E00423BB730023FB7351
:1001C0000FE07B681B793B72FB7B7A6813445B7999
:1001D0007B7207F10803184600F0C8F8FB7B013377
:1001E000FB73FA7BBB7B9A42EBD3322000F026FCF8
:1001F0000221786800F036F8042000F01FFC282166
:10020000786800F02FF8642000F046FC0C21786834
:1002100000F028F8642000F03FFC322000F00EFCD3
:1002200000BF1037BD4680BD80B582B000AF78609A
:100230007B6818787B685B780122194600F020FB08
:10024000012000F0FBFB7B6818787B685B7800225C
:10025000194600F015FB012000F0F0FB00BF083745
:10026000BD4680BD80B584B000AF78600B46FB70A2
:100270007B6898787B68DB780022194600F000FBE9
:100280007B685B7B012B1DD1FB781B09FB737B68B3
:1002900018797B68591DFB7B042200F019FB7868F4
:1002A000FFF7C2FFFB7803F00F03BB737B6818797D
:1002B0007B68591DBB7B042200F00AFB7868FFF7BE
:1002C000B3FF0AE07B6818797B68591DFB78082228
:1002D00000F0FEFA7868FFF7A7FF022000F0AEFBFF
:1002E00000BF1037BD4680BD80B584B000AF7860D8
:1002F0000B46FB707B6898787B68DB780122194697
:1003000000F0BEFA7B685B7B012B1DD1FB781B09DB
:10031000FB737B6818797B68591DFB7B042200F016
:10032000D7FA7868FFF780FFFB7803F00F03BB7301
:100330007B6818797B68591DBB7B042200F0C8FAE2
:100340007868FFF771FF0AE07B6818797B68591DB0
:10035000FB78082200F0BCFA7868FFF765FF0220FE
:1003600000F06CFB00BF1037BD4680BD80B485B087
:1003700000AF78607B681B78012B06D0022B07D07A
:10038000002B08D1944BFB6005E0944BFB6002E02E
:10039000934BFB6000BF7B685B78072B00F22281E8
:1003A0007B689B78002B17D1FB681B687A685278B2
:1003B00092000F2101FA02F2D2431A40FB681A6040
:1003C000FB681B687A6852789200042101FA02F2F5
:1003D0001A43FB681A6030E27B689B78012B21D1BD
:1003E000FB681B687A68527892000F2101FA02F2CA
:1003F000D2431A40FB681A60FB681B687A6852781F
:100400009200082101FA02F21A43FB681A60FB68A5
:10041000DB687A685278114601228A401A43FB68E9
:10042000DA600AE27B689B78022B22D1FB681B68AA
:100430007A68527892000F2101FA02F2D2431A40F0
:10044000FB681A60FB681B687A6852789200082182
:1004500001FA02F21A43FB681A60FB68DB687A68EB
:100460005278114601228A40D2431A40FB68DA6072
:10047000E3E17B689B78032B0CD1FB681B687A68EF
:10048000527892000F2101FA02F2D2431A40FB681F
:100490001A60D2E17B689B78042B1DD1FB681B6836
:1004A0007A68527892000F2101FA02F2D2431A4080
:1004B000FB681A60FB681B687A68D27811467A6814
:1004C0005278920001FA02F21A43FB681A60FB6844
:1004D0001A68FB681A60B0E17B689B78052B25D110
:1004E000FB681B687A68527892000F2101FA02F2C9
:1004F000D2431A40FB681A60FB681B687A68D2789E
:1005000011467A685278920001FA02F21A43FB68A7
:100510001A60FB681B687A685278920002320121E7
:1005200001FA02F21A43FB681A6086E17B689B7845
:10053000062B25D1FB681B687A68527892000F2140
:1005400001FA02F2D2431A40FB681A60FB681B688A
:100550007A68D27811467A685278920001FA02F2EB
:100560001A43FB681A60FB681B687A68527892002D
:100570000232022101FA02F21A43FB681A605CE1BE
:100580007B689B78072B40F05881FB681B687A6872
:10059000527892000F2101FA02F2D2431A40FB680E
:1005A0001A60FB681B687A68D27811467A685278BC
:1005B000920001FA02F21A43FB681A60FB681B689A
:1005C0007A68527892000232032101FA02F21A4349
:1005D000FB681A6031E100BF00080140000C0140D7
:1005E000001001407B689B78002B19D1FB685B6889
:1005F0007A685278083A92000F2101FA02F2D24347
:100600001A40FB685A60FB685B687A685278083A5F
:100610009200042101FA02F21A43FB685A600CE1CD
:100620007B689B78012B23D1FB685B687A685278E2
:10063000083A92000F2101FA02F2D2431A40FB68F5
:100640005A60FB685B687A685278083A9200082121
:1006500001FA02F21A43FB685A60FB68DB687A68A9
:100660005278114601228A401A43FB68DA60E4E0BE
:100670007B689B78022B24D1FB685B687A68527890
:10068000083A92000F2101FA02F2D2431A40FB68A5
:100690005A60FB685B687A685278083A92000821D1
:1006A00001FA02F21A43FB685A60FB68DB687A6859
:1006B0005278114601228A40D2431A40FB68DA6020
:1006C000BBE07B689B78032B0DD1FB685B687A6885
:1006D0005278083A92000F2101FA02F2D2431A40EE
:1006E000FB685A60A9E07B689B78042B1FD1FB68EC
:1006F0005B687A685278083A92000F2101FA02F298
:10070000D2431A40FB685A60FB685B687A68D2780B
:1007100011467A685278083A920001FA02F21A43B6
:10072000FB685A60FB685A68FB685A6085E07B6822
:100730009B78052B28D1FB685B687A685278083A69
:1007400092000F2101FA02F2D2431A40FB685A606C
:10075000FB685B687A68D27811467A685278083A02
:10076000920001FA02F21A43FB685A60FB685B6868
:100770007A685278083A92000232012101FA02F2B4
:100780001A43FB685A6058E07B689B78062B28D197
:10079000FB685B687A685278083A92000F2101FA88
:1007A00002F2D2431A40FB685A60FB685B687A68C1
:1007B000D27811467A685278083A920001FA02F229
:1007C0001A43FB685A60FB685B687A685278083A9B
:1007D00092000232022101FA02F21A43FB685A60C7
:1007E0002BE07B689B78072B27D1FB685B687A68D6
:1007F0005278083A92000F2101FA02F2D2431A40CD
:10080000FB685A60FB685B687A68D27811467A6840
:100810005278083A920001FA02F21A43FB685A60D1
:10082000FB685B687A685278083A920002320321CA
:1008300001FA02F21A43FB685A6000BF1437BD4642
:1008400080BC704780B483B000AF0346FB71FB7976
:10085000012B05D0022B05D0002B05D1054B03E061
:10086000054B01E0054BFFE718460C37BD4680BC41
:10087000704700BF00080140000C0140001001401B
:1008800080B584B000AF0346FB710B46BB711346C5
:100890007B71FB791846FFF7D5FFF8607B79012B58
:1008A00009D1FB681B69BA79012101FA02F21A43E6
:1008B000FB681A6108E0FB685B69BA79012101FAFB
:1008C00002F21A43FB685A6100BF1037BD4680BD73
:1008D00080B584B000AF396011461A460346FB71FB
:1008E0000B46BB7113467B71FB791846FFF7AAFFD5
:1008F000B8600023FB7323E07A79FB7B42FA03F3B1
:1009000003F00103002B0CD0BB681B69FA7B39682C
:100910000A441278114601228A401A43BB681A61C0
:100920000BE0BB685B69FA7B39680A4412781146B0
:1009300001228A401A43BB685A61FB7B0133FB7377
:10094000FA7BBB799A42D7D300BF1037BD4680BD32
:1009500080B400AF154B1B68144A43F001031360C9
:1009600000BF124B1B685B0803F00103002BF8D09B
:100970000E4B5B680D4A23F0020353600B4B5B6820
:100980000A4A23F00103536000BF084B074A5B6823
:100990005360064B054A5B685360044B034A5B682F
:1009A000536000BFBD4680BC704700BF00100240CE
:1009B00080B485B000AF78607B681B0CFB73FB7B59
:1009C000022B0FD0032B18D0012B00D020E0134BAB
:1009D0005A6901217B6801FA03F39BB20F49134363
:1009E0004B6115E00D4BDA6901217B6801FA03F3D5
:1009F0009BB20A491343CB610AE0084B9A69012173
:100A00007B6801FA03F39BB2044913438B6100BF77
:100A100000BF1437BD4680BC704700BF00100240C5
:100A200080B400AF044B1B68034A43F00403136017
:100A300000BFBD4680BC704710E000E080B483B0CA
:100A400000AF78607B684FF4FA5202FB03F3114A5F
:100A5000013B53600F4B00229A600E4B1B680D4AFE
:100A600043F00103136000BF0A4B1B681B0C03F02B
:100A70000103002BF8D0074B1B68064A23F0010343
:100A80001360044B00229A6000BF0C37BD4680BC47
:100A9000704700BF10E000E080B483B000AF786022
:100AA0007B68DB00104A013B53600F4B00229A60C9
:100AB0000D4B1B680C4A43F00103136000BF0A4B47
:100AC0001B681B0C03F00103002BF8D0064B1B68BE
:100AD000054A23F001031360034B00229A6000BF14
:100AE0000C37BD4680BC704710E000E080B400AF1A
:100AF000044B1B68034A23F00203136000BFBD468A
:100B000080BC704710E000E080B500AF064B1B686A
:100B10009847064B1B68054A23F001031360FFF753
:100B2000E5FF00BF80BD00BF1C00002010E000E01A
:100B300080B588B000AFFFF70BFF3048FFF738FFF4
:100B40004FF00310FFF734FFFFF76AFF00233B74F9
:100B500001237B740023BB740023FB7401237B7788
:100B60001023FB770423BB7700233B7502237B759F
:100B70000323BB750423FB7505233B760423BB735A
:100B800001233B730223FB7305237B730423BB7296
:100B900001233B720223FB7206237B7207F11003D1
:100BA0001846FFF7E5FA07F10C031846FFF7DEFBDE
:100BB00007F108031846FFF7D9FB6420FFF73EFF53
:100BC0000F4B1B88BB8007F1100301211846FFF76C
:100BD00049FB07F1100341211846FFF785FB4FF44D
:100BE0007A70FFF72BFF07F1100301211846FFF77A
:100BF00039FB4FF47A70FFF721FFEAE702000300A8
:100C0000B80C00080D4885460D480E490E4A0023D1
:100C100002E0D458C4500433C4188C42F9D30B4AB0
:100C20000B4C002301E013600432A242FBD3AFF36C
:100C3000008000F011F8FFF77BFFFEE70050002076
:100C40000000002000000020C40C0008000000206C
:100C500020000020FEE7000070B500250C4E0D4C72
:100C6000A41BA410A54209D100F01AF800250A4ED1
:100C70000A4CA41BA410A54205D170BD56F825301E
:100C800098470135EEE756F8253098470135F2E7E9
:100C9000BC0C0008BC0C0008BC0C0008C00C000810
:100CA000F8B500BFF8BC08BC9E467047F8B500BF59
:080CB000F8BC08BC9E46704729
:040CB800050600002D
:040CBC0055010008D6
:040CC00031010008F6
:0400000508000C05DE
:00000001FF
