:020000040800F2
:100000000050002071080008C1080008C10800085D
:10001000C1080008C1080008C1080008000000006D
:10002000000000000000000000000000C1080008FF
:10003000C108000800000000C1080008ED07000822
:10004000C1080008C1080008C1080008C10800086C
:10005000C1080008C1080008C1080008C10800085C
:10006000C1080008C1080008C1080008C10800084C
:10007000C1080008C1080008C1080008C10800083C
:10008000C1080008C1080008C1080008C10800082C
:10009000C1080008C1080008C1080008C10800081C
:1000A000C1080008C1080008C1080008C10800080C
:1000B000C1080008C1080008C1080008C1080008FC
:1000C000C1080008C1080008C1080008C1080008EC
:1000D000C1080008C1080008C1080008C1080008DC
:1000E000C1080008C108000800000000C10800089D
:1000F000C1080008C1080008C1080008C1080008BC
:10010000C1080008C1080008C1080008C1080008AB
:10011000C1080008C1080008C1080008C10800089B
:10012000C1080008C1080008C1080008C10800088B
:1001300010B5054C237833B9044B13B10448AFF321
:1001400000800123237010BD00000020000000008B
:100150000C09000808B5034B1BB103490348AFF372
:10016000008008BD00000000040000200C09000809
:1001700080B485B000AF78607B681B78012B06D017
:10018000022B07D0002B08D1944BFB6005E0944B69
:10019000FB6002E0934BFB6000BF7B685B78072B42
:1001A00000F222817B689B78002B17D1FB681B68CB
:1001B0007A68527892000F2101FA02F2D2431A4073
:1001C000FB681A60FB681B687A6852789200042109
:1001D00001FA02F21A43FB681A6030E27B689B78EE
:1001E000012B21D1FB681B687A68527892000F219D
:1001F00001FA02F2D2431A40FB681A60FB681B68DE
:100200007A6852789200082101FA02F21A43FB68D8
:100210001A60FB68DB687A685278114601228A40CE
:100220001A43FB68DA600AE27B689B78022B22D1D2
:10023000FB681B687A68527892000F2101FA02F27B
:10024000D2431A40FB681A60FB681B687A685278D0
:100250009200082101FA02F21A43FB681A60FB6857
:10026000DB687A685278114601228A40D2431A40EC
:10027000FB68DA60E3E17B689B78032B0CD1FB68B9
:100280001B687A68527892000F2101FA02F2D24379
:100290001A40FB681A60D2E17B689B78042B1DD161
:1002A000FB681B687A68527892000F2101FA02F20B
:1002B000D2431A40FB681A60FB681B687A68D278E0
:1002C00011467A685278920001FA02F21A43FB68EA
:1002D0001A60FB681A68FB681A60B0E17B689B785B
:1002E000052B25D1FB681B687A68527892000F2194
:1002F00001FA02F2D2431A40FB681A60FB681B68DD
:100300007A68D27811467A685278920001FA02F23D
:100310001A43FB681A60FB681B687A68527892007F
:100320000232012101FA02F21A43FB681A6086E1E7
:100330007B689B78062B25D1FB681B687A6852780E
:1003400092000F2101FA02F2D2431A40FB681A60B0
:10035000FB681B687A68D27811467A6852789200F6
:1003600001FA02F21A43FB681A60FB681B687A689C
:10037000527892000232022101FA02F21A43FB681B
:100380001A605CE17B689B78072B40F05881FB6822
:100390001B687A68527892000F2101FA02F2D24368
:1003A0001A40FB681A60FB681B687A68D2781146AD
:1003B0007A685278920001FA02F21A43FB681A60D6
:1003C000FB681B687A68527892000232032101FAB6
:1003D00002F21A43FB681A6031E100BF00080140D5
:1003E000000C0140001001407B689B78002B19D164
:1003F000FB685B687A685278083A92000F2101FA2C
:1004000002F2D2431A40FB685A60FB685B687A6864
:100410005278083A9200042101FA02F21A43FB686A
:100420005A600CE17B689B78012B23D1FB685B68E9
:100430007A685278083A92000F2101FA02F2D24308
:100440001A40FB685A60FB685B687A685278083A21
:100450009200082101FA02F21A43FB685A60FB6815
:10046000DB687A685278114601228A401A43FB6899
:10047000DA60E4E07B689B78022B24D1FB685B6840
:100480007A685278083A92000F2101FA02F2D243B8
:100490001A40FB685A60FB685B687A685278083AD1
:1004A0009200082101FA02F21A43FB685A60FB68C5
:1004B000DB687A685278114601228A40D2431A409A
:1004C000FB68DA60BBE07B689B78032B0DD1FB688F
:1004D0005B687A685278083A92000F2101FA02F2BA
:1004E000D2431A40FB685A60A9E07B689B78042BD2
:1004F0001FD1FB685B687A685278083A92000F2136
:1005000001FA02F2D2431A40FB685A60FB685B684A
:100510007A68D27811467A685278083A920001FADD
:1005200002F21A43FB685A60FB685A68FB685A601B
:1005300085E07B689B78052B28D1FB685B687A682F
:100540005278083A92000F2101FA02F2D2431A407F
:10055000FB685A60FB685B687A68D27811467A68F3
:100560005278083A920001FA02F21A43FB685A6084
:10057000FB685B687A685278083A9200023201217F
:1005800001FA02F21A43FB685A6058E07B689B78D4
:10059000062B28D1FB685B687A685278083A92008B
:1005A0000F2101FA02F2D2431A40FB685A60FB683D
:1005B0005B687A68D27811467A685278083A920075
:1005C00001FA02F21A43FB685A60FB685B687A68BA
:1005D0005278083A92000232022101FA02F21A43DA
:1005E000FB685A602BE07B689B78072B27D1FB6860
:1005F0005B687A685278083A92000F2101FA02F299
:10060000D2431A40FB685A60FB685B687A68D2780C
:1006100011467A685278083A920001FA02F21A43B7
:10062000FB685A60FB685B687A685278083A920007
:100630000232032101FA02F21A43FB685A6000BF3A
:100640001437BD4680BC704780B483B000AF78607B
:100650000B46FB701346BB70BB78012B09D17B683E
:100660001B69FA78012101FA02F21A437B681A61C8
:1006700008E07B685B69FA78012101FA02F21A430B
:100680007B685A6100BF0C37BD4680BC70470000D4
:1006900080B400AF154B1B68144A43F0010313608C
:1006A00000BF124B1B685B0803F00103002BF8D05E
:1006B0000E4B5B680D4A23F0020353600B4B5B68E3
:1006C0000A4A23F00103536000BF084B074A5B68E6
:1006D0005360064B054A5B685360044B034A5B68F2
:1006E000536000BFBD4680BC704700BF0010024091
:1006F00080B485B000AF78607B681B0CFB73FB7B1C
:10070000022B0FD0032B18D0012B00D020E0134B6D
:100710005A6901217B6801FA03F39BB20F49134325
:100720004B6115E00D4BDA6901217B6801FA03F397
:100730009BB20A491343CB610AE0084B9A69012135
:100740007B6801FA03F39BB2044913438B6100BF3A
:1007500000BF1437BD4680BC704700BF0010024088
:1007600080B400AF044B1B68034A43F004031360DA
:1007700000BFBD4680BC704710E000E080B483B08D
:1007800000AF7860114B4FF0FF325A600F4B0022E0
:100790009A600E4B1B680D4A43F00103136000BFC3
:1007A0000A4B1B681B0C03F00103002BF8D0074B0E
:1007B0001B68064A23F001031360044B00229A6071
:1007C00000BF0C37BD4680BC704700BF10E000E0A2
:1007D00080B400AF044B1B68034A23F0020313608C
:1007E00000BFBD4680BC704710E000E080B500AFA0
:1007F000064B1B689847064B1B68054A23F001030C
:100800001360FFF7E5FF00BF80BD00BF1C000020A4
:1008100010E000E080B582B000AFFFF739FF12486A
:10082000FFF766FFFFF79CFF02233B710F237B71ED
:100830000423BB710223FB713B1D1846FFF798FC94
:1008400001220F210948FFF7FFFE4FF4FA70FFF76E
:1008500095FF00220F210548FFF7F6FE4FF4FA70CE
:10086000FFF78CFFECE700BF04000300001001401D
:100870000D4885460D480E490E4A002302E0D45823
:10088000C4500433C4188C42F9D30B4A0B4C0023D8
:1008900001E013600432A242FBD3AFF3008000F00A
:1008A00011F8FFF7B7FFFEE700500020000000201E
:1008B000000000202C09000800000020200000207B
:1008C000FEE7000070B500250C4E0D4CA41BA410D3
:1008D000A54209D100F01AF800250A4E0A4CA41BC3
:1008E000A410A54205D170BD56F8253098470135B2
:1008F000EEE756F8253098470135F2E7240900085D
:10090000240900082409000828090008F8B500BFD8
:10091000F8BC08BC9E467047F8B500BFF8BC08BCE0
:040920009E46704738
:040924005501000871
:040928003101000891
:040000050800087176
:00000001FF
